:0C0000000C9403010C9400000C94000010
:10000C000C9400000C9400000C9400000C94000064
:10001C000C9400000C9400000C9433010C94000020
:10002C000C9400000C9400000C9400000C94000044
:10003C000C9400000C9400000C9400000C94000034
:10004C000C9400000C9400001027E80364000A00D4
:10005C00010000100001100001000000010014005C
:10006C0080000000FFFF0D0A00256920000D0A41E9
:10007C006E64617220417475616C2025690044695D
:10008C007374E26E63696173206F7264656E616490
:10009C0061732065207365757320616E6461726590
:1000AC00733A0A0044697374E26E6369613A2025FD
:1000BC00642C20416E6461723A2025640A000D0A9A
:1000CC0041727261792064652065737461646F7329
:1000DC0020646F732073656E736F726573000D0A05
:1000EC00417272617920646520616E64617265731E
:1000FC00206163696F6E61646F73000D0A5072F357
:10010C0078696D6F20616E6461723A2025690D0A01
:10011C000054657272656F0031DF20616E6461722C
:10012C000032DF20616E646172000D0A426F74E36D
:10013C006F20696E7465726E6F20646F20656C65DC
:10014C007661646F72207072657373696F6E61642F
:10015C006F0D0A000D0A426F74E36F2065787465A9
:10016C00726E6F206465206368616D6164612064E8
:10017C006F20656C657661646F7220707265737345
:10018C00696F6E61646F0D0A000D0A4E656E6875BD
:10019C006D20626F74E36F20666F692070726573F7
:1001AC0073696F6E61646F0D0A000D0A4E656E689F
:1001BC00756D20626F74E36F20666F6920707265D5
:1001CC007373696F6E61646F0D0A200080C001004B
:1001DC002D4E414E00494E460000010066016A005A
:1001EC00010068016C0004000A006E000200A0010E
:1001FC00D8010100A701DA010000F894EE27ECBB4E
:10020C00F1E0FBBFEBBFE5BFF8E1F1BDE1BD8DE077
:10021C00A2E0BB27ED938A95E9F780E094E0A0E695
:10022C00ED930197E9F7E6EEF1E085919591009752
:10023C0061F0A591B59105901590BF01F001059065
:10024C000D920197E1F7FB01F0CFEFE5EDBFE4E094
:10025C00EEBFC0E6D1E00C94B602AA93BA93EA932F
:10026C00FA93EFB7EA93EDE8E2BF0E943E060E94D4
:10027C00FD06E0936901F0936A01E9B3F0E0E095C3
:10028C00F095EF70F070A0916901B0916A01EA2BC2
:10029C00FB2BE0936901F0936A01E0916801F0E0B7
:1002AC00F595E795E0936801A0916801A830D9F520
:1002BC00E0E8E09368010E943E063097F9F0E09187
:1002CC006701E03011F0E15027C0A0916601A15008
:1002DC00A0936601A93039F40E943E06E0936B01AD
:1002EC00F0936C011BC0E0916B01F0916C01A0913B
:1002FC006901B0916A01EA17FB0729F0EAE0E09383
:10030C006601E0E009C0E0916601E03039F440900C
:10031C00690150906A01E4E1E0936701E0E0E09349
:10032C006901E0936A01E0916801E095EBBBE9910A
:10033C00EFBFF991E991B991A99118951A930A9384
:10034C00F2018F01309711F044245524F80199C023
:10035C00E0EFEABBEFEFEBBBE4E0E3BFEDE8E2BFBD
:10036C00E0E0ECBFE1E0E9BF78940895E0E080992B
:10037C00E1E0F0E0E0938E01F0938F01A0E9B1E0B1
:10038C00E0E08199E1E00E944306A2E9B1E0E0E0FF
:10039C008299E1E00E944306A4E9B1E0E0E0839990
:1003AC00E1E00E944306A6E9B1E0E0E08499E1E0D7
:1003BC000E944306A8E9B1E0E0E08599E1E00E94E3
:1003CC004306AAE9B1E0E0E08699E1E00E94430629
:1003DC00ACE9B1E0E0E08799E1E00E9443060895C2
:1003EC001A930A930E94470600E010E0EA81FB8111
:1003FC000E171F07D4F4E5E7F0E0FA93EA93F8013F
:10040C00AE81BF81EE0FFF1FAE0FBF1F0E940B0707
:10041C000E945006EA81FB813197E017F10711F435
:10042C000E9447060F5F1F4FE1CF19810881269666
:10043C0008951A930A93A0918E01B0918F01119790
:10044C0011F488249924E0919401F0919501E13004
:10045C00A0E0FA0719F4E1E0F0E04F01E09192011D
:10046C00F0919301E130A0E0FA0719F4E2E0F0E03A
:10047C004F01E9E7F0E0FA93EA93F4010E94500689
:10048C00F401099119910895C09AC19802C0C098BD
:10049C00C19AC29AC39AE1E0F0E05F010895F401B9
:1004AC00A0E6B1E0EE0FFF1FAE0FBF1FE0E0F0E0E3
:1004BC00ED93FC93C098C198E1E0F0E0EA15FB05E0
:1004CC0041F4C298C398E0EDF7E00E945906AA24C3
:1004DC00BB240895F401309771F40E945D0619F461
:1004EC00E1E0F0E005C00E94650621F4E2E0F0E0F6
:1004FC006F01CADF2AC0E130A0E0FA0791F4A091A5
:10050C006001B0916101119721F4CC24DD24BFDF8F
:10051C0007C00E94650621F4E2E0F0E06F01B4DF51
:10052C0014C0E230A0E0FA0781F40E945D0621F4C9
:10053C00E1E0F0E06F0108C0A0916001B0916101B1
:10054C00119719F4CC24DD24A2DF0895C814D90422
:10055C0029F0EFEFFFEFEC15FD0509F4A0DF08958E
:10056C00E0E0EBBBEABBE8BBEFEFE7BBE0E0E5BBF1
:10057C00E4BBE2BBE1BBE1E0E3BFE0E0E2BFECBF28
:10058C00EFBDEEBDEDBDECBDE7BDE6BDEBBDEABD1F
:10059C00E9BDE8BDE2BDE9E6E5BDE0E0E4BDE8ECBF
:1005AC00E3BDE0E0E5BFE4BFE1E0E9BFE0E0EBB9CB
:1005BC00E8E1EAB9E6E8E0BDE0E0E0BDEFE2E9B988
:1005CC00E0E8E8B9E0E0E0BFE6B9EDB9E6BFE0E1AC
:1005DC00EA9338D17894BCDEAB9AC8DEEAECF0E052
:1005EC000E946D06EEE8F1E0FA93EA93E8E0F0E0A1
:1005FC00FA93EA93F5DE1DDFEAEEF0E00E946D0659
:10060C00E0E6F1E0FA93EA93E3E0F0E0FA93EA93A0
:10061C00E7DE60DF9BDFE7E0F1E0FA93EA93F601B7
:10062C000E9450068BDE8F01309711F40C949A03C4
:10063C000030E0E11E0720F00130E0E81E0708F072
:10064C0030C0F801E030A0E8FA0749F40E947406C3
:10065C000E947906662477240E9482061FC0E0302F
:10066C00A0E4FA0751F40E9474060E948906E1E0A6
:10067C00F0E03F01E2E6F1E00DC0E030A0E2FA0765
:10068C0069F40E9474060E949206E2E0F0E03F01D9
:10069C00E4E6F1E0A1E0B0E0A083B183E6E3F1E0B1
:1006AC0033C00130E0E01E0720F00930E0E01E0707
:1006BC0008F028C0F801E830A0E0FA0739F40E94ED
:1006CC0074060E9479060E94820619C0E430A0E0EC
:1006DC00FA0739F40E9474060E948906E2E6F1E0FA
:1006EC000AC0E230A0E0FA0751F40E9474060E949E
:1006FC009206E4E6F1E0A1E0B0E0A083B183E0E68D
:10070C00F1E002C0E5E9F1E0FA93EA9380E00E949F
:10071C001D06229656D0E3E0EA93E1E0EA9340D03E
:10072C000E94740680D004C0E6EBF1E00E946D06D6
:10073C0081E38A95F1F751CFFFCFE881E07111F099
:10074C00AC9A01C0AC98E881E07211F0AD9A01C08E
:10075C00AD98E881E07411F0AE9A01C0AE98E881D2
:10076C00E07811F0AF9A01C0AF988AE08A95F1F762
:10077C00AA9A89E18A95F1F7AA9889E18A95F1F705
:10078C000C947504E881EA93D8DFE881E295E8835C
:10079C00E881EA93D2DF86EF8A95F1F70C94750421
:1007AC00E881F0E0E056FE4FE081A981EA0FEA9380
:1007BC00E9DFE981E093A401E881E093A5012296A9
:1007CC000895E2E00E949B06ECE0EA93DBDFE1E0B7
:1007DC000E949B06E0E0E093A501E093A40108953C
:1007EC00A881AA3031F0E091A601A091A401AE1726
:1007FC0070F0E0E0EA93E091A501EF5FE093A501D2
:10080C00EA93CEDFA881AA3011F40C947504E09120
:10081C00A401EF5FE093A401A89AE881EA93B2DF08
:10082C00A8980C9475041A93A981BA81ED91A983A7
:10083C00BA831E2FE03019F01A93D2DFF5CF18814E
:10084C000C947E04A49AA59AA69AA79AA29AA09A06
:10085C00A19AAA98A898A998E881E093A601E058D3
:10086C00E093A201E881E054E093A301E4E1F0E01D
:10087C000E9459060E94A1060E94A1060E94A10690
:10088C00E0E2EA935ADF81E791E00197F1F7E8E2C1
:10089C00EA9378DFE4E0EA9375DFE5E8EA9372DF48
:1008AC00E6E0EA936FDF8DDF0C947504A991B991A2
:1008BC00EE27FF276D91662311F03196FBCF08953B
:1008CC00AA27BB27E991F9910590002011F0119608
:1008DC00FBCFFD0108955D9BFECFE881ECB921961D
:1008EC000895EA81EA93F7DFA881B9810E94AA06EC
:1008FC00239608951A930A93AA81BB8112960E949B
:10090C000B07309729F1AA81BB8114960E940B0723
:10091C008F01309761F00230E0E01E07C0F0F80163
:10092C0031978F01AA81BB811496ED93FC93AA8118
:10093C00BB8112960E94AA063197AC81A083AA8132
:10094C00BB810E940B07FF2312F00E94AA0606C06F
:10095C00AA81BB81EFEFFFEFED93FC931981088126
:10096C002596089526970E94180710E0AC85BD8542
:10097C00E0E0F0E0ED93FC93EA89FB893196EA8B99
:10098C00FB8B3197E4912E2FE03011F40C94E5059C
:10099C00E12FE03039F4253211F411E002C00E944D
:1009AC00B0060CC1E130A9F4253219F40E94B0064E
:1009BC0004C112E040E000E02D3211F401E0FEC071
:1009CC002B3211F44BE2FAC0203211F440E2F6C0A3
:1009DC0002C0E23039F450E013E0203311F4006827
:1009EC00EDC004C0E33011F00C94E405203310F09A
:1009FC002A3308F007C0AAE05A9F502DE22FE0538B
:100A0C005E0FDCC0E22FE33649F40E94B906E88998
:100A1C00F989A481AA930E94BF06CFC0E33741F4A1
:100A2C000E94B9060E94C7060E945C041E2F0AC0D1
:100A3C00E03761F40E94B9060E94C7060E94660462
:100A4C001E2F086002600F7730E035C0E43611F0DD
:100A5C00E93611F4046002C0E53731F4E4E5F0E066
:100A6C00EE83FF8315E00DC0E83511F4086004C077
:100A7C00E83711F00C94E305EEE5F0E0EE83FF832C
:100A8C0014E002FF14C00E94B9060E94D106AB8587
:100A9C00AA233AF4EA85FB850E94F906EA87FB87CC
:100AAC004DE2403011F01F5F01C00B7F04C00E946B
:100ABC00B9060E94D10600FD11C0151778F407FF86
:100ACC0008C002FF04C00B7F242F115001C020E38B
:100ADC0001C020E20E94B0065150EFCF312F01FF30
:100AEC0017C03030A1F003FF06C0EE81FF812591C5
:100AFC00EE83FF8305C0AE81BF812D91AE83BF8392
:100B0C000E94B006503009F051503150EACF4BC022
:100B1C0020E3EE81FF810E940F07E887F987EE81C1
:100B2C00FF813296EE83FF83E885F985AA85BB8524
:100B3C00AE17BF0750F02F5FA885B985EA85FB85F6
:100B4C00EA1BFB0BEA87FB87EFCF2A3328F003FF66
:100B5C0002C0295F01C0295D04FD1AC0213320F4B5
:100B6C00A885B985119709F409C0531710F000FF37
:100B7C0001C013C020E207FF0BC020E3006102FF9D
:100B8C0007C00B7F4A930E94BF06503009F05150AA
:100B9C000E94B006503009F051503150A885B985EB
:100BAC00129708F0B5CF00FF08C0503031F051500B
:100BBC00E0E2EA930E94BF06F8CF10E0DDCEAC85F0
:100BCC00BD850E940B070E941F0764960895FF9233
:100BDC00F82E26970E941A070E94D906309719F40E
:100BEC00EFEFFFEF1FC0DE0116960E94F5068D0198
:100BFC000E94D906EE83FF83E0E0E887E987DE01F7
:100C0C001A960E94E006E0E8F4E0FA93EA93FE01FB
:100C1C003A96FA93EA93A6DE9F01AE81BF81E0E09B
:100C2C00EC93F9010E9421072A96FF900895FF92F8
:100C3C00F82E26971A930A93DE0114960E94F50655
:100C4C008D01E0E0EC83ED83EE83EF83DE011896FB
:100C5C000E94E006E7E7F4E0FA93EA93FE01389687
:100C6C00FA93EA937FDE198108812896FF90089504
:100C7C00E0916901F0916A010895F0E0ED93FC9325
:100C8C000895E2E7F0E0FA93EA9380E00E941D06F3
:100C9C00229608950E9406070E94130784E00E9482
:100CAC001D0626960895FA93EA930C94E906E091B2
:100CBC006201F0916301E130A0E0FA070895E09140
:100CCC006401F0916501E130A0E0FA070895FA9310
:100CDC00EA9380E00E941D0622960895EDE6F1E06D
:100CEC00FA93EA930895EDE1F1E0FA93EA9380E048
:100CFC000E94ED0524960895E1E0F0E0E093600198
:100D0C00F09361010895E4E2F1E0FA93EA9380E054
:100D1C000E94ED0524960895EDE2F1E0FA93EA9332
:100D2C0080E00E94ED0524960895EA930E94C80382
:100D3C00E3E0F0E0B8CFE0E3EA930E94A30381E79D
:100D4C0091E00197F1F70895ED91FD913196FE93A5
:100D5C00EE9308952A93ED85FE85FA93EA93E9893B
:100D6C00FA8909950895E889F9893497E88BF98B04
:100D7C000895ED85FE85FA93EA93E989FA89099538
:100D8C000895A889B98914960E940B07EE83FF83F6
:100D9C00FA93EA930895A889B98914960E940B07CF
:100DAC00EA87FB870895DE011C960E94F5060E94D7
:100DBC000B0708950E94F5060E940B07FA93EA931D
:100DCC001A930A930895E991F991309639F086E6D1
:100DDC009EE00197F1F7A8953197C9F70895002483
:100DEC00AF0DB01D0895F195E195F0400895EE0F0B
:100DFC00FF1FEE0FFF1FEE0FFF1FEE0FFF1F0895DB
:100E0C006F2F660F660B762F0895ED91FC9111975D
:100E1C0008950590F491E02D08957A936A93FA93CE
:100E2C00EA9308955A934A933A932A931A930A93FE
:100E3C0008955D814C813B812A8119810881089537
:00000001FF
